{
  "_format": "hh-sol-artifact-1",
  "contractName": "Registrar",
  "sourceName": "contracts/Registrar.sol",
  "abi": [
    {
      "anonymous": false,
      "inputs": [
        {
          "indexed": true,
          "internalType": "address",
          "name": "owner",
          "type": "address"
        },
        {
          "indexed": true,
          "internalType": "address",
          "name": "approved",
          "type": "address"
        },
        {
          "indexed": true,
          "internalType": "uint256",
          "name": "tokenId",
          "type": "uint256"
        }
      ],
      "name": "Approval",
      "type": "event"
    },
    {
      "anonymous": false,
      "inputs": [
        {
          "indexed": true,
          "internalType": "address",
          "name": "owner",
          "type": "address"
        },
        {
          "indexed": true,
          "internalType": "address",
          "name": "operator",
          "type": "address"
        },
        {
          "indexed": false,
          "internalType": "bool",
          "name": "approved",
          "type": "bool"
        }
      ],
      "name": "ApprovalForAll",
      "type": "event"
    },
    {
      "anonymous": false,
      "inputs": [
        {
          "indexed": true,
          "internalType": "address",
          "name": "controller",
          "type": "address"
        }
      ],
      "name": "ControllerAdded",
      "type": "event"
    },
    {
      "anonymous": false,
      "inputs": [
        {
          "indexed": true,
          "internalType": "address",
          "name": "controller",
          "type": "address"
        }
      ],
      "name": "ControllerRemoved",
      "type": "event"
    },
    {
      "anonymous": false,
      "inputs": [
        {
          "indexed": true,
          "internalType": "uint256",
          "name": "id",
          "type": "uint256"
        },
        {
          "indexed": false,
          "internalType": "string",
          "name": "name",
          "type": "string"
        },
        {
          "indexed": true,
          "internalType": "uint256",
          "name": "nameHash",
          "type": "uint256"
        },
        {
          "indexed": true,
          "internalType": "uint256",
          "name": "parent",
          "type": "uint256"
        },
        {
          "indexed": false,
          "internalType": "address",
          "name": "minter",
          "type": "address"
        },
        {
          "indexed": false,
          "internalType": "address",
          "name": "controller",
          "type": "address"
        },
        {
          "indexed": false,
          "internalType": "string",
          "name": "metadataUri",
          "type": "string"
        },
        {
          "indexed": false,
          "internalType": "uint256",
          "name": "royaltyAmount",
          "type": "uint256"
        }
      ],
      "name": "DomainCreated",
      "type": "event"
    },
    {
      "anonymous": false,
      "inputs": [
        {
          "indexed": true,
          "internalType": "uint256",
          "name": "id",
          "type": "uint256"
        },
        {
          "indexed": false,
          "internalType": "string",
          "name": "uri",
          "type": "string"
        }
      ],
      "name": "MetadataChanged",
      "type": "event"
    },
    {
      "anonymous": false,
      "inputs": [
        {
          "indexed": true,
          "internalType": "uint256",
          "name": "id",
          "type": "uint256"
        },
        {
          "indexed": false,
          "internalType": "address",
          "name": "locker",
          "type": "address"
        },
        {
          "indexed": false,
          "internalType": "bool",
          "name": "isLocked",
          "type": "bool"
        }
      ],
      "name": "MetadataLockChanged",
      "type": "event"
    },
    {
      "anonymous": false,
      "inputs": [
        {
          "indexed": true,
          "internalType": "address",
          "name": "previousOwner",
          "type": "address"
        },
        {
          "indexed": true,
          "internalType": "address",
          "name": "newOwner",
          "type": "address"
        }
      ],
      "name": "OwnershipTransferred",
      "type": "event"
    },
    {
      "anonymous": false,
      "inputs": [
        {
          "indexed": false,
          "internalType": "address",
          "name": "account",
          "type": "address"
        }
      ],
      "name": "Paused",
      "type": "event"
    },
    {
      "anonymous": false,
      "inputs": [
        {
          "indexed": true,
          "internalType": "uint256",
          "name": "id",
          "type": "uint256"
        },
        {
          "indexed": false,
          "internalType": "uint256",
          "name": "amount",
          "type": "uint256"
        }
      ],
      "name": "RoyaltiesAmountChanged",
      "type": "event"
    },
    {
      "anonymous": false,
      "inputs": [
        {
          "indexed": true,
          "internalType": "address",
          "name": "from",
          "type": "address"
        },
        {
          "indexed": true,
          "internalType": "address",
          "name": "to",
          "type": "address"
        },
        {
          "indexed": true,
          "internalType": "uint256",
          "name": "tokenId",
          "type": "uint256"
        }
      ],
      "name": "Transfer",
      "type": "event"
    },
    {
      "anonymous": false,
      "inputs": [
        {
          "indexed": false,
          "internalType": "address",
          "name": "account",
          "type": "address"
        }
      ],
      "name": "Unpaused",
      "type": "event"
    },
    {
      "inputs": [
        {
          "internalType": "address",
          "name": "controller",
          "type": "address"
        }
      ],
      "name": "addController",
      "outputs": [],
      "stateMutability": "nonpayable",
      "type": "function"
    },
    {
      "inputs": [
        {
          "internalType": "address",
          "name": "to",
          "type": "address"
        },
        {
          "internalType": "uint256",
          "name": "tokenId",
          "type": "uint256"
        }
      ],
      "name": "approve",
      "outputs": [],
      "stateMutability": "nonpayable",
      "type": "function"
    },
    {
      "inputs": [
        {
          "internalType": "address",
          "name": "owner",
          "type": "address"
        }
      ],
      "name": "balanceOf",
      "outputs": [
        {
          "internalType": "uint256",
          "name": "",
          "type": "uint256"
        }
      ],
      "stateMutability": "view",
      "type": "function"
    },
    {
      "inputs": [],
      "name": "baseURI",
      "outputs": [
        {
          "internalType": "string",
          "name": "",
          "type": "string"
        }
      ],
      "stateMutability": "view",
      "type": "function"
    },
    {
      "inputs": [
        {
          "internalType": "address",
          "name": "",
          "type": "address"
        }
      ],
      "name": "controllers",
      "outputs": [
        {
          "internalType": "bool",
          "name": "",
          "type": "bool"
        }
      ],
      "stateMutability": "view",
      "type": "function"
    },
    {
      "inputs": [
        {
          "internalType": "uint256",
          "name": "id",
          "type": "uint256"
        }
      ],
      "name": "domainController",
      "outputs": [
        {
          "internalType": "address",
          "name": "",
          "type": "address"
        }
      ],
      "stateMutability": "view",
      "type": "function"
    },
    {
      "inputs": [
        {
          "internalType": "uint256",
          "name": "id",
          "type": "uint256"
        }
      ],
      "name": "domainExists",
      "outputs": [
        {
          "internalType": "bool",
          "name": "",
          "type": "bool"
        }
      ],
      "stateMutability": "view",
      "type": "function"
    },
    {
      "inputs": [
        {
          "internalType": "uint256",
          "name": "id",
          "type": "uint256"
        }
      ],
      "name": "domainMetadataLockedBy",
      "outputs": [
        {
          "internalType": "address",
          "name": "",
          "type": "address"
        }
      ],
      "stateMutability": "view",
      "type": "function"
    },
    {
      "inputs": [
        {
          "internalType": "uint256",
          "name": "id",
          "type": "uint256"
        }
      ],
      "name": "domainRoyaltyAmount",
      "outputs": [
        {
          "internalType": "uint256",
          "name": "",
          "type": "uint256"
        }
      ],
      "stateMutability": "view",
      "type": "function"
    },
    {
      "inputs": [
        {
          "internalType": "uint256",
          "name": "tokenId",
          "type": "uint256"
        }
      ],
      "name": "getApproved",
      "outputs": [
        {
          "internalType": "address",
          "name": "",
          "type": "address"
        }
      ],
      "stateMutability": "view",
      "type": "function"
    },
    {
      "inputs": [],
      "name": "initialize",
      "outputs": [],
      "stateMutability": "nonpayable",
      "type": "function"
    },
    {
      "inputs": [
        {
          "internalType": "address",
          "name": "owner",
          "type": "address"
        },
        {
          "internalType": "address",
          "name": "operator",
          "type": "address"
        }
      ],
      "name": "isApprovedForAll",
      "outputs": [
        {
          "internalType": "bool",
          "name": "",
          "type": "bool"
        }
      ],
      "stateMutability": "view",
      "type": "function"
    },
    {
      "inputs": [
        {
          "internalType": "address",
          "name": "account",
          "type": "address"
        }
      ],
      "name": "isController",
      "outputs": [
        {
          "internalType": "bool",
          "name": "",
          "type": "bool"
        }
      ],
      "stateMutability": "view",
      "type": "function"
    },
    {
      "inputs": [
        {
          "internalType": "uint256",
          "name": "id",
          "type": "uint256"
        }
      ],
      "name": "isDomainMetadataLocked",
      "outputs": [
        {
          "internalType": "bool",
          "name": "",
          "type": "bool"
        }
      ],
      "stateMutability": "view",
      "type": "function"
    },
    {
      "inputs": [
        {
          "internalType": "uint256",
          "name": "id",
          "type": "uint256"
        }
      ],
      "name": "minterOf",
      "outputs": [
        {
          "internalType": "address",
          "name": "",
          "type": "address"
        }
      ],
      "stateMutability": "view",
      "type": "function"
    },
    {
      "inputs": [],
      "name": "name",
      "outputs": [
        {
          "internalType": "string",
          "name": "",
          "type": "string"
        }
      ],
      "stateMutability": "view",
      "type": "function"
    },
    {
      "inputs": [],
      "name": "owner",
      "outputs": [
        {
          "internalType": "address",
          "name": "",
          "type": "address"
        }
      ],
      "stateMutability": "view",
      "type": "function"
    },
    {
      "inputs": [
        {
          "internalType": "uint256",
          "name": "tokenId",
          "type": "uint256"
        }
      ],
      "name": "ownerOf",
      "outputs": [
        {
          "internalType": "address",
          "name": "",
          "type": "address"
        }
      ],
      "stateMutability": "view",
      "type": "function"
    },
    {
      "inputs": [
        {
          "internalType": "uint256",
          "name": "id",
          "type": "uint256"
        }
      ],
      "name": "parentOf",
      "outputs": [
        {
          "internalType": "uint256",
          "name": "",
          "type": "uint256"
        }
      ],
      "stateMutability": "view",
      "type": "function"
    },
    {
      "inputs": [],
      "name": "pause",
      "outputs": [],
      "stateMutability": "nonpayable",
      "type": "function"
    },
    {
      "inputs": [],
      "name": "paused",
      "outputs": [
        {
          "internalType": "bool",
          "name": "",
          "type": "bool"
        }
      ],
      "stateMutability": "view",
      "type": "function"
    },
    {
      "inputs": [
        {
          "internalType": "uint256",
          "name": "",
          "type": "uint256"
        }
      ],
      "name": "records",
      "outputs": [
        {
          "internalType": "address",
          "name": "minter",
          "type": "address"
        },
        {
          "internalType": "bool",
          "name": "metadataLocked",
          "type": "bool"
        },
        {
          "internalType": "address",
          "name": "metadataLockedBy",
          "type": "address"
        },
        {
          "internalType": "address",
          "name": "controller",
          "type": "address"
        },
        {
          "internalType": "uint256",
          "name": "royaltyAmount",
          "type": "uint256"
        },
        {
          "internalType": "uint256",
          "name": "parentId",
          "type": "uint256"
        }
      ],
      "stateMutability": "view",
      "type": "function"
    },
    {
      "inputs": [
        {
          "internalType": "uint256",
          "name": "parentId",
          "type": "uint256"
        },
        {
          "internalType": "string",
          "name": "name",
          "type": "string"
        },
        {
          "internalType": "address",
          "name": "minter",
          "type": "address"
        },
        {
          "internalType": "string",
          "name": "metadataUri",
          "type": "string"
        },
        {
          "internalType": "uint256",
          "name": "royaltyAmount",
          "type": "uint256"
        },
        {
          "internalType": "bool",
          "name": "locked",
          "type": "bool"
        }
      ],
      "name": "registerDomain",
      "outputs": [
        {
          "internalType": "uint256",
          "name": "",
          "type": "uint256"
        }
      ],
      "stateMutability": "nonpayable",
      "type": "function"
    },
    {
      "inputs": [
        {
          "internalType": "address",
          "name": "controller",
          "type": "address"
        }
      ],
      "name": "removeController",
      "outputs": [],
      "stateMutability": "nonpayable",
      "type": "function"
    },
    {
      "inputs": [],
      "name": "renounceOwnership",
      "outputs": [],
      "stateMutability": "nonpayable",
      "type": "function"
    },
    {
      "inputs": [
        {
          "internalType": "address",
          "name": "from",
          "type": "address"
        },
        {
          "internalType": "address",
          "name": "to",
          "type": "address"
        },
        {
          "internalType": "uint256",
          "name": "tokenId",
          "type": "uint256"
        }
      ],
      "name": "safeTransferFrom",
      "outputs": [],
      "stateMutability": "nonpayable",
      "type": "function"
    },
    {
      "inputs": [
        {
          "internalType": "address",
          "name": "from",
          "type": "address"
        },
        {
          "internalType": "address",
          "name": "to",
          "type": "address"
        },
        {
          "internalType": "uint256",
          "name": "tokenId",
          "type": "uint256"
        },
        {
          "internalType": "bytes",
          "name": "_data",
          "type": "bytes"
        }
      ],
      "name": "safeTransferFrom",
      "outputs": [],
      "stateMutability": "nonpayable",
      "type": "function"
    },
    {
      "inputs": [
        {
          "internalType": "uint256",
          "name": "id",
          "type": "uint256"
        },
        {
          "internalType": "string",
          "name": "uri",
          "type": "string"
        },
        {
          "internalType": "bool",
          "name": "toLock",
          "type": "bool"
        }
      ],
      "name": "setAndLockDomainMetadata",
      "outputs": [],
      "stateMutability": "nonpayable",
      "type": "function"
    },
    {
      "inputs": [
        {
          "internalType": "address",
          "name": "operator",
          "type": "address"
        },
        {
          "internalType": "bool",
          "name": "approved",
          "type": "bool"
        }
      ],
      "name": "setApprovalForAll",
      "outputs": [],
      "stateMutability": "nonpayable",
      "type": "function"
    },
    {
      "inputs": [
        {
          "internalType": "uint256",
          "name": "id",
          "type": "uint256"
        },
        {
          "internalType": "uint256",
          "name": "amount",
          "type": "uint256"
        }
      ],
      "name": "setDomainRoyaltyAmount",
      "outputs": [],
      "stateMutability": "nonpayable",
      "type": "function"
    },
    {
      "inputs": [
        {
          "internalType": "bytes4",
          "name": "interfaceId",
          "type": "bytes4"
        }
      ],
      "name": "supportsInterface",
      "outputs": [
        {
          "internalType": "bool",
          "name": "",
          "type": "bool"
        }
      ],
      "stateMutability": "view",
      "type": "function"
    },
    {
      "inputs": [],
      "name": "symbol",
      "outputs": [
        {
          "internalType": "string",
          "name": "",
          "type": "string"
        }
      ],
      "stateMutability": "view",
      "type": "function"
    },
    {
      "inputs": [
        {
          "internalType": "uint256",
          "name": "index",
          "type": "uint256"
        }
      ],
      "name": "tokenByIndex",
      "outputs": [
        {
          "internalType": "uint256",
          "name": "",
          "type": "uint256"
        }
      ],
      "stateMutability": "view",
      "type": "function"
    },
    {
      "inputs": [
        {
          "internalType": "address",
          "name": "owner",
          "type": "address"
        },
        {
          "internalType": "uint256",
          "name": "index",
          "type": "uint256"
        }
      ],
      "name": "tokenOfOwnerByIndex",
      "outputs": [
        {
          "internalType": "uint256",
          "name": "",
          "type": "uint256"
        }
      ],
      "stateMutability": "view",
      "type": "function"
    },
    {
      "inputs": [
        {
          "internalType": "uint256",
          "name": "tokenId",
          "type": "uint256"
        }
      ],
      "name": "tokenURI",
      "outputs": [
        {
          "internalType": "string",
          "name": "",
          "type": "string"
        }
      ],
      "stateMutability": "view",
      "type": "function"
    },
    {
      "inputs": [],
      "name": "totalSupply",
      "outputs": [
        {
          "internalType": "uint256",
          "name": "",
          "type": "uint256"
        }
      ],
      "stateMutability": "view",
      "type": "function"
    },
    {
      "inputs": [
        {
          "internalType": "address",
          "name": "from",
          "type": "address"
        },
        {
          "internalType": "address",
          "name": "to",
          "type": "address"
        },
        {
          "internalType": "uint256",
          "name": "tokenId",
          "type": "uint256"
        }
      ],
      "name": "transferFrom",
      "outputs": [],
      "stateMutability": "nonpayable",
      "type": "function"
    },
    {
      "inputs": [
        {
          "internalType": "address",
          "name": "newOwner",
          "type": "address"
        }
      ],
      "name": "transferOwnership",
      "outputs": [],
      "stateMutability": "nonpayable",
      "type": "function"
    },
    {
      "inputs": [],
      "name": "unpause",
      "outputs": [],
      "stateMutability": "nonpayable",
      "type": "function"
    }
  ],
  "bytecode": "0x608060405234801561001057600080fd5b50613a76806100206000396000f3fe608060405234801561001057600080fd5b506004361061023d5760003560e01c80637ad3e55b1161013b578063aca05acc116100b8578063cfa3c1321161007c578063cfa3c13214610936578063da8c229e14610953578063e985e9c514610979578063f2fde38b146109a7578063f6a74ed7146109cd5761023d565b8063aca05acc146106ca578063b429afeb14610812578063b88d4fde14610838578063be21eccd146108fc578063c87b56dd146109195761023d565b80638de2dec9116100ff5780638de2dec91461063457806395d89b41146106515780639e942ace14610659578063a22cb46514610676578063a7fc7a07146106a45761023d565b80637ad3e55b146105e25780637efcc90d146105ff5780638129fc1c1461061c5780638456cb59146106245780638da5cb5b1461062c5761023d565b80633f4ba83a116101c9578063620e42ea1161018d578063620e42ea146105725780636352211e1461058f5780636c0360eb146105ac57806370a08231146105b4578063715018a6146105da5761023d565b80633f4ba83a1461046257806342842e0e1461046a57806343e7000b146104a05780634f6ccce71461054d5780635c975abb1461056a5761023d565b806318160ddd1161021057806318160ddd1461036157806323b872dd1461037b5780632566193f146103b15780632f745c59146103d457806334461067146104005761023d565b806301ffc9a71461024257806306fdde031461027d578063081812fc146102fa578063095ea7b314610333575b600080fd5b6102696004803603602081101561025857600080fd5b50356001600160e01b0319166109f3565b604080519115158252519081900360200190f35b610285610a16565b6040805160208082528351818301528351919283929083019185019080838360005b838110156102bf5781810151838201526020016102a7565b50505050905090810190601f1680156102ec5780820380516001836020036101000a031916815260200191505b509250505060405180910390f35b6103176004803603602081101561031057600080fd5b5035610aac565b604080516001600160a01b039092168252519081900360200190f35b61035f6004803603604081101561034957600080fd5b506001600160a01b038135169060200135610b0e565b005b610369610be9565b60408051918252519081900360200190f35b61035f6004803603606081101561039157600080fd5b506001600160a01b03813581169160208101359091169060400135610bfa565b61035f600480360360408110156103c757600080fd5b5080359060200135610c51565b610369600480360360408110156103ea57600080fd5b506001600160a01b038135169060200135610d5e565b61041d6004803603602081101561041657600080fd5b5035610d89565b604080516001600160a01b039788168152951515602087015293861685850152919094166060840152608083019390935260a082019290925290519081900360c00190f35b61035f610dd2565b61035f6004803603606081101561048057600080fd5b506001600160a01b03813581169160208101359091169060400135610e3e565b61035f600480360360608110156104b657600080fd5b81359190810190604081016020820135600160201b8111156104d757600080fd5b8201836020820111156104e957600080fd5b803590602001918460018302840111600160201b8311171561050a57600080fd5b91908080601f0160208091040260200160405190810160405280939291908181526020018383808284376000920191909152509295505050503515159050610e59565b6103696004803603602081101561056357600080fd5b5035610ed5565b610269610eeb565b6103176004803603602081101561058857600080fd5b5035610ef4565b610317600480360360208110156105a557600080fd5b5035610f13565b610285610f3b565b610369600480360360208110156105ca57600080fd5b50356001600160a01b0316610f9c565b61035f611004565b610369600480360360208110156105f857600080fd5b50356110b0565b6103176004803603602081101561061557600080fd5b50356110c6565b61035f6110e5565b61035f6111f3565b61031761125d565b6102696004803603602081101561064a57600080fd5b503561126c565b61028561127f565b6103176004803603602081101561066f57600080fd5b50356112e0565b61035f6004803603604081101561068c57600080fd5b506001600160a01b03813516906020013515156112fc565b61035f600480360360208110156106ba57600080fd5b50356001600160a01b0316611401565b610369600480360360c08110156106e057600080fd5b81359190810190604081016020820135600160201b81111561070157600080fd5b82018360208201111561071357600080fd5b803590602001918460018302840111600160201b8311171561073457600080fd5b91908080601f01602080910402602001604051908101604052809392919081815260200183838082843760009201919091525092956001600160a01b03853516959094909350604081019250602001359050600160201b81111561079757600080fd5b8201836020820111156107a957600080fd5b803590602001918460018302840111600160201b831117156107ca57600080fd5b91908080601f01602080910402602001604051908101604052809392919081815260200183838082843760009201919091525092955050823593505050602001351515611509565b6102696004803603602081101561082857600080fd5b50356001600160a01b0316611802565b61035f6004803603608081101561084e57600080fd5b6001600160a01b03823581169260208101359091169160408201359190810190608081016060820135600160201b81111561088857600080fd5b82018360208201111561089a57600080fd5b803590602001918460018302840111600160201b831117156108bb57600080fd5b91908080601f016020809104026020016040519081016040528093929190818152602001838380828437600092019190915250929550611821945050505050565b6102696004803603602081101561091257600080fd5b5035611879565b6102856004803603602081101561092f57600080fd5b5035611896565b6103696004803603602081101561094c57600080fd5b5035611b19565b6102696004803603602081101561096957600080fd5b50356001600160a01b0316611b8c565b6102696004803603604081101561098f57600080fd5b506001600160a01b0381358116916020013516611ba2565b61035f600480360360208110156109bd57600080fd5b50356001600160a01b0316611bd0565b61035f600480360360208110156109e357600080fd5b50356001600160a01b0316611cd3565b6001600160e01b0319811660009081526033602052604090205460ff165b919050565b609c8054604080516020601f6002600019610100600188161502019095169490940493840181900481028201810190925282815260609390929091830182828015610aa25780601f10610a7757610100808354040283529160200191610aa2565b820191906000526020600020905b815481529060010190602001808311610a8557829003601f168201915b5050505050905090565b6000610ab782611dd7565b610af25760405162461bcd60e51b815260040180806020018281038252602c8152602001806138cb602c913960400191505060405180910390fd5b506000908152609a60205260409020546001600160a01b031690565b6000610b1982610f13565b9050806001600160a01b0316836001600160a01b03161415610b6c5760405162461bcd60e51b815260040180806020018281038252602181526020018061399b6021913960400191505060405180910390fd5b806001600160a01b0316610b7e611de4565b6001600160a01b03161480610b9f5750610b9f81610b9a611de4565b611ba2565b610bda5760405162461bcd60e51b81526004018080602001828103825260388152602001806137f06038913960400191505060405180910390fd5b610be48383611de8565b505050565b6000610bf56098611e56565b905090565b610c0b610c05611de4565b82611e61565b610c465760405162461bcd60e51b81526004018080602001828103825260318152602001806139e76031913960400191505060405180910390fd5b610be4838383611f05565b8133610c5c82610f13565b6001600160a01b031614610cb3576040805162461bcd60e51b81526020600482015260196024820152782d32b918102932b3b4b9ba3930b91d102737ba1037bbb732b960391b604482015290519081900360640190fd5b610cbc83611879565b15610d0e576040805162461bcd60e51b815260206004820152601f60248201527f5a657230205265676973747261723a204d65746164617461206c6f636b656400604482015290519081900360640190fd5b600083815261012e60209081526040918290206003018490558151848152915185927fc5d3655658e1a082c77cb3090bd47fa5ab24b4b24fe0613109f4b6ced9681c8192908290030190a2505050565b6001600160a01b0382166000908152609760205260408120610d809083612051565b90505b92915050565b61012e60205260009081526040902080546001820154600283015460038401546004909401546001600160a01b0380851695600160a01b90950460ff1694938116939216919086565b610dda611de4565b6001600160a01b0316610deb61125d565b6001600160a01b031614610e34576040805162461bcd60e51b81526020600482018190526024820152600080516020613923833981519152604482015290519081900360640190fd5b610e3c61205d565b565b610be483838360405180602001604052806000815250611821565b8233610e6482610f13565b6001600160a01b031614610ebb576040805162461bcd60e51b81526020600482015260196024820152782d32b918102932b3b4b9ba3930b91d102737ba1037bbb732b960391b604482015290519081900360640190fd5b610ec584846120fd565b610ecf8483612200565b50505050565b600080610ee3609884612395565b509392505050565b60c95460ff1690565b600090815261012e60205260409020600101546001600160a01b031690565b6000610d838260405180606001604052806029815260200161385260299139609891906123b1565b609f8054604080516020601f6002600019610100600188161502019095169490940493840181900481028201810190925282815260609390929091830182828015610aa25780601f10610a7757610100808354040283529160200191610aa2565b60006001600160a01b038216610fe35760405162461bcd60e51b815260040180806020018281038252602a815260200180613828602a913960400191505060405180910390fd5b6001600160a01b0382166000908152609760205260409020610d8390611e56565b61100c611de4565b6001600160a01b031661101d61125d565b6001600160a01b031614611066576040805162461bcd60e51b81526020600482018190526024820152600080516020613923833981519152604482015290519081900360640190fd5b6065546040516000916001600160a01b0316907f8be0079c531659141344cd1fd0a4f28419497f9722a3daafe3b4186f6b6457e0908390a3606580546001600160a01b0319169055565b600090815261012e602052604090206003015490565b600090815261012e60205260409020600201546001600160a01b031690565b600054610100900460ff16806110fe57506110fe6123be565b8061110c575060005460ff16155b6111475760405162461bcd60e51b815260040180806020018281038252602e81526020018061387b602e913960400191505060405180910390fd5b600054610100900460ff16158015611172576000805460ff1961ff0019909116610100171660011790555b61117a6123cf565b61118261246c565b6111d0604051806040016040528060118152602001705a657230204e616d65205365727669636560781b815250604051806040016040528060038152602001625a4e5360e81b815250612519565b6111de6000803360006125d6565b80156111f0576000805461ff00191690555b50565b6111fb611de4565b6001600160a01b031661120c61125d565b6001600160a01b031614611255576040805162461bcd60e51b81526020600482018190526024820152600080516020613923833981519152604482015290519081900360640190fd5b610e3c61268e565b6065546001600160a01b031690565b60008061127883611dd7565b9392505050565b609d8054604080516020601f6002600019610100600188161502019095169490940493840181900481028201810190925282815260609390929091830182828015610aa25780601f10610a7757610100808354040283529160200191610aa2565b600090815261012e60205260409020546001600160a01b031690565b611304611de4565b6001600160a01b0316826001600160a01b0316141561136a576040805162461bcd60e51b815260206004820152601960248201527f4552433732313a20617070726f766520746f2063616c6c657200000000000000604482015290519081900360640190fd5b80609b6000611377611de4565b6001600160a01b03908116825260208083019390935260409182016000908120918716808252919093529120805460ff1916921515929092179091556113bb611de4565b6001600160a01b03167f17307eab39ab6107e8899845ad3d59bd9653f200f220920489ca2b5937696c318360405180821515815260200191505060405180910390a35050565b611409611de4565b6001600160a01b031661141a61125d565b6001600160a01b031614611463576040805162461bcd60e51b81526020600482018190526024820152600080516020613923833981519152604482015290519081900360640190fd5b6001600160a01b038116600090815261012d602052604090205460ff16156114bc5760405162461bcd60e51b815260040180806020018281038252602b8152602001806139bc602b913960400191505060405180910390fd5b6001600160a01b038116600081815261012d6020526040808220805460ff19166001179055517f0a8bb31534c0ed46f380cb867bd5c803a189ced9a764e30b3a4991a9901d74749190a250565b33600090815261012d602052604081205460ff1661156e576040805162461bcd60e51b815260206004820152601e60248201527f5a657230205265676973747261723a204e6f7420636f6e74726f6c6c65720000604482015290519081900360640190fd5b60008651116115c4576040805162461bcd60e51b815260206004820152601a60248201527f5a657230205265676973747261723a20456d707479206e616d65000000000000604482015290519081900360640190fd5b85516020870120336115d589611dd7565b611626576040805162461bcd60e51b815260206004820152601960248201527f5a657230205265676973747261723a204e6f20706172656e7400000000000000604482015290519081900360640190fd5b6040805160208082018c90528183018590528251808303840181526060909201909252805191012061165a8a828a856125d6565b6116648188612711565b84156116765761167681896001612774565b85156116c857600081815261012e60209081526040918290206003018890558151888152915183927fc5d3655658e1a082c77cb3090bd47fa5ab24b4b24fe0613109f4b6ced9681c8192908290030190a25b8983827fa1e3de8df2416768142fabd8111223b0c081ba6de301784495c52a64ddd241ee8c8c878d8d6040518080602001866001600160a01b03168152602001856001600160a01b0316815260200180602001848152602001838103835288818151815260200191508051906020019080838360005b8381101561175657818101518382015260200161173e565b50505050905090810190601f1680156117835780820380516001836020036101000a031916815260200191505b50838103825285518152855160209182019187019080838360005b838110156117b657818101518382015260200161179e565b50505050905090810190601f1680156117e35780820380516001836020036101000a031916815260200191505b5097505050505050505060405180910390a49998505050505050505050565b6001600160a01b0316600090815261012d602052604090205460ff1690565b61183261182c611de4565b83611e61565b61186d5760405162461bcd60e51b81526004018080602001828103825260318152602001806139e76031913960400191505060405180910390fd5b610ecf848484846127fc565b600090815261012e6020526040902054600160a01b900460ff1690565b60606118a182611dd7565b6118dc5760405162461bcd60e51b815260040180806020018281038252602f81526020018061396c602f913960400191505060405180910390fd5b6000828152609e602090815260409182902080548351601f60026000196101006001861615020190931692909204918201849004840281018401909452808452606093928301828280156119715780601f1061194657610100808354040283529160200191611971565b820191906000526020600020905b81548152906001019060200180831161195457829003601f168201915b505050505090506060611982610f3b565b905080516000141561199657509050610a11565b815115611a575780826040516020018083805190602001908083835b602083106119d15780518252601f1990920191602091820191016119b2565b51815160209384036101000a600019018019909216911617905285519190930192850191508083835b60208310611a195780518252601f1990920191602091820191016119fa565b6001836020036101000a0380198251168184511680821785525050505050509050019250505060405160208183030381529060405292505050610a11565b80611a618561284e565b6040516020018083805190602001908083835b60208310611a935780518252601f199092019160209182019101611a74565b51815160209384036101000a600019018019909216911617905285519190930192850191508083835b60208310611adb5780518252601f199092019160209182019101611abc565b6001836020036101000a0380198251168184511680821785525050505050509050019250505060405160208183030381529060405292505050919050565b6000611b2482611dd7565b611b75576040805162461bcd60e51b815260206004820152601e60248201527f5a657230205265676973747261723a20446f6573206e6f742065786973740000604482015290519081900360640190fd5b50600090815261012e602052604090206004015490565b61012d6020526000908152604090205460ff1681565b6001600160a01b039182166000908152609b6020908152604080832093909416825291909152205460ff1690565b611bd8611de4565b6001600160a01b0316611be961125d565b6001600160a01b031614611c32576040805162461bcd60e51b81526020600482018190526024820152600080516020613923833981519152604482015290519081900360640190fd5b6001600160a01b038116611c775760405162461bcd60e51b81526004018080602001828103825260268152602001806137546026913960400191505060405180910390fd5b6065546040516001600160a01b038084169216907f8be0079c531659141344cd1fd0a4f28419497f9722a3daafe3b4186f6b6457e090600090a3606580546001600160a01b0319166001600160a01b0392909216919091179055565b611cdb611de4565b6001600160a01b0316611cec61125d565b6001600160a01b031614611d35576040805162461bcd60e51b81526020600482018190526024820152600080516020613923833981519152604482015290519081900360640190fd5b6001600160a01b038116600090815261012d602052604090205460ff16611d8d5760405162461bcd60e51b8152600401808060200182810382526029815260200180613a186029913960400191505060405180910390fd5b6001600160a01b038116600081815261012d6020526040808220805460ff19169055517f33d83959be2573f5453b12eb9d43b3499bc57d96bd2f067ba44803c859e811139190a250565b6000610d83609883612929565b3390565b6000818152609a6020526040902080546001600160a01b0319166001600160a01b0384169081179091558190611e1d82610f13565b6001600160a01b03167f8c5be1e5ebec7d5bd14f71427d1e84f3dd0314c0f7b2291e5b200ac8c7c3b92560405160405180910390a45050565b6000610d8382612935565b6000611e6c82611dd7565b611ea75760405162461bcd60e51b815260040180806020018281038252602c8152602001806137c4602c913960400191505060405180910390fd5b6000611eb283610f13565b9050806001600160a01b0316846001600160a01b03161480611eed5750836001600160a01b0316611ee284610aac565b6001600160a01b0316145b80611efd5750611efd8185611ba2565b949350505050565b826001600160a01b0316611f1882610f13565b6001600160a01b031614611f5d5760405162461bcd60e51b81526004018080602001828103825260298152602001806139436029913960400191505060405180910390fd5b6001600160a01b038216611fa25760405162461bcd60e51b815260040180806020018281038252602481526020018061377a6024913960400191505060405180910390fd5b611fad838383612939565b611fb8600082611de8565b6001600160a01b0383166000908152609760205260409020611fda9082612988565b506001600160a01b0382166000908152609760205260409020611ffd9082612994565b5061200a609882846129a0565b5080826001600160a01b0316846001600160a01b03167fddf252ad1be2c89b69c2b068fc378daa952ba7f163c4a11628f55a4df523b3ef60405160405180910390a4505050565b6000610d8083836129b6565b612065610eeb565b6120ad576040805162461bcd60e51b815260206004820152601460248201527314185d5cd8589b194e881b9bdd081c185d5cd95960621b604482015290519081900360640190fd5b60c9805460ff191690557f5db9ee0a495bf2e6ff9c91a7834c1ba4fdd244a5e8aa4e537bd38aeae4b073aa6120e0611de4565b604080516001600160a01b039092168252519081900360200190a1565b61210682611879565b15612158576040805162461bcd60e51b815260206004820152601f60248201527f5a657230205265676973747261723a204d65746164617461206c6f636b656400604482015290519081900360640190fd5b6121628282612711565b817f2822080855c1a796047f86db6703ee05ff65e9ab90092ca4114af8f017f2047e826040518080602001828103825283818151815260200191508051906020019080838360005b838110156121c25781810151838201526020016121aa565b50505050905090810190601f1680156121ef5780820380516001836020036101000a031916815260200191505b509250505060405180910390a25050565b80156122c7573361221083610f13565b6001600160a01b031614612267576040805162461bcd60e51b81526020600482015260196024820152782d32b918102932b3b4b9ba3930b91d102737ba1037bbb732b960391b604482015290519081900360640190fd5b61227082611879565b156122c2576040805162461bcd60e51b815260206004820152601f60248201527f5a657230205265676973747261723a204d65746164617461206c6f636b656400604482015290519081900360640190fd5b612386565b6122d082611879565b612321576040805162461bcd60e51b815260206004820152601a60248201527f5a657230205265676973747261723a204e6f74206c6f636b6564000000000000604482015290519081900360640190fd5b3361232b83610ef4565b6001600160a01b031614612386576040805162461bcd60e51b815260206004820152601a60248201527f5a657230205265676973747261723a204e6f74206c6f636b6572000000000000604482015290519081900360640190fd5b612391823383612774565b5050565b60008080806123a48686612a1a565b9097909650945050505050565b6000611efd848484612a95565b60006123c930612b5f565b15905090565b600054610100900460ff16806123e857506123e86123be565b806123f6575060005460ff16155b6124315760405162461bcd60e51b815260040180806020018281038252602e81526020018061387b602e913960400191505060405180910390fd5b600054610100900460ff1615801561245c576000805460ff1961ff0019909116610100171660011790555b612464612b65565b6111de612c05565b600054610100900460ff168061248557506124856123be565b80612493575060005460ff16155b6124ce5760405162461bcd60e51b815260040180806020018281038252602e81526020018061387b602e913960400191505060405180910390fd5b600054610100900460ff161580156124f9576000805460ff1961ff0019909116610100171660011790555b612501612b65565b612509612cfe565b612511612d9b565b6111de612b65565b600054610100900460ff168061253257506125326123be565b80612540575060005460ff16155b61257b5760405162461bcd60e51b815260040180806020018281038252602e81526020018061387b602e913960400191505060405180910390fd5b600054610100900460ff161580156125a6576000805460ff1961ff0019909116610100171660011790555b6125ae612b65565b6125b6612cfe565b6125c08383612e46565b8015610be4576000805461ff0019169055505050565b6125e08284612f2b565b6040805160c0810182526001600160a01b03938416815260006020808301828152838501838152958716606085019081526080850184815260a086019a8b5298845261012e909252939091209151825493511515600160a01b0260ff60a01b199187166001600160a01b031995861617919091161782559251600182018054918616918416919091179055915160028301805491909416911617909155905160038201559051600490910155565b612696610eeb565b156126db576040805162461bcd60e51b815260206004820152601060248201526f14185d5cd8589b194e881c185d5cd95960821b604482015290519081900360640190fd5b60c9805460ff191660011790557f62e78cea01bee320cd4e420270b5ea74000d11b0c9f74754ebdbfc544b05a2586120e0611de4565b61271a82611dd7565b6127555760405162461bcd60e51b815260040180806020018281038252602c8152602001806138f7602c913960400191505060405180910390fd5b6000828152609e602090815260409091208251610be492840190613641565b600083815261012e60209081526040918290206001810180546001600160a01b0319166001600160a01b038716908117909155815460ff60a01b1916600160a01b86151590810291909117909255835190815291820152815185927f744fbf73ca597de9504b16ce458f2f84b5c1e0950258bc0b23fa259b2dd7cb5c928290030190a2505050565b612807848484611f05565b61281384848484612f45565b610ecf5760405162461bcd60e51b81526004018080602001828103825260328152602001806137226032913960400191505060405180910390fd5b60608161287357506040805180820190915260018152600360fc1b6020820152610a11565b8160005b811561288b57600101600a82049150612877565b60608167ffffffffffffffff811180156128a457600080fd5b506040519080825280601f01601f1916602001820160405280156128cf576020820181803683370190505b50859350905060001982015b831561292057600a840660300160f81b828280600190039350815181106128fe57fe5b60200101906001600160f81b031916908160001a905350600a840493506128db565b50949350505050565b6000610d8083836130ad565b5490565b612944838383610be4565b61294c610eeb565b15610be45760405162461bcd60e51b815260040180806020018281038252602b8152602001806136f7602b913960400191505060405180910390fd5b6000610d8083836130c5565b6000610d80838361318b565b6000611efd84846001600160a01b0385166131d5565b815460009082106129f85760405162461bcd60e51b81526004018080602001828103825260228152602001806136d56022913960400191505060405180910390fd5b826000018281548110612a0757fe5b9060005260206000200154905092915050565b815460009081908310612a5e5760405162461bcd60e51b81526004018080602001828103825260228152602001806138a96022913960400191505060405180910390fd5b6000846000018481548110612a6f57fe5b906000526020600020906002020190508060000154816001015492509250509250929050565b60008281526001840160205260408120548281612b305760405162461bcd60e51b81526004018080602001828103825283818151815260200191508051906020019080838360005b83811015612af5578181015183820152602001612add565b50505050905090810190601f168015612b225780820380516001836020036101000a031916815260200191505b509250505060405180910390fd5b50846000016001820381548110612b4357fe5b9060005260206000209060020201600101549150509392505050565b3b151590565b600054610100900460ff1680612b7e5750612b7e6123be565b80612b8c575060005460ff16155b612bc75760405162461bcd60e51b815260040180806020018281038252602e81526020018061387b602e913960400191505060405180910390fd5b600054610100900460ff161580156111de576000805460ff1961ff00199091166101001716600117905580156111f0576000805461ff001916905550565b600054610100900460ff1680612c1e5750612c1e6123be565b80612c2c575060005460ff16155b612c675760405162461bcd60e51b815260040180806020018281038252602e81526020018061387b602e913960400191505060405180910390fd5b600054610100900460ff16158015612c92576000805460ff1961ff0019909116610100171660011790555b6000612c9c611de4565b606580546001600160a01b0319166001600160a01b038316908117909155604051919250906000907f8be0079c531659141344cd1fd0a4f28419497f9722a3daafe3b4186f6b6457e0908290a35080156111f0576000805461ff001916905550565b600054610100900460ff1680612d175750612d176123be565b80612d25575060005460ff16155b612d605760405162461bcd60e51b815260040180806020018281038252602e81526020018061387b602e913960400191505060405180910390fd5b600054610100900460ff16158015612d8b576000805460ff1961ff0019909116610100171660011790555b6111de6301ffc9a760e01b61326c565b600054610100900460ff1680612db45750612db46123be565b80612dc2575060005460ff16155b612dfd5760405162461bcd60e51b815260040180806020018281038252602e81526020018061387b602e913960400191505060405180910390fd5b600054610100900460ff16158015612e28576000805460ff1961ff0019909116610100171660011790555b60c9805460ff1916905580156111f0576000805461ff001916905550565b600054610100900460ff1680612e5f5750612e5f6123be565b80612e6d575060005460ff16155b612ea85760405162461bcd60e51b815260040180806020018281038252602e81526020018061387b602e913960400191505060405180910390fd5b600054610100900460ff16158015612ed3576000805460ff1961ff0019909116610100171660011790555b8251612ee690609c906020860190613641565b508151612efa90609d906020850190613641565b50612f0b6380ac58cd60e01b61326c565b612f1b635b5e139f60e01b61326c565b6125c063780e9d6360e01b61326c565b6123918282604051806020016040528060008152506132f0565b6000612f59846001600160a01b0316612b5f565b612f6557506001611efd565b6060613073630a85bd0160e11b612f7a611de4565b88878760405160240180856001600160a01b03168152602001846001600160a01b0316815260200183815260200180602001828103825283818151815260200191508051906020019080838360005b83811015612fe1578181015183820152602001612fc9565b50505050905090810190601f16801561300e5780820380516001836020036101000a031916815260200191505b5095505050505050604051602081830303815290604052906001600160e01b0319166020820180516001600160e01b038381831617835250505050604051806060016040528060328152602001613722603291396001600160a01b0388169190613342565b9050600081806020019051602081101561308c57600080fd5b50516001600160e01b031916630a85bd0160e11b1492505050949350505050565b60009081526001919091016020526040902054151590565b6000818152600183016020526040812054801561318157835460001980830191908101906000908790839081106130f857fe5b906000526020600020015490508087600001848154811061311557fe5b60009182526020808320909101929092558281526001898101909252604090209084019055865487908061314557fe5b60019003818190600052602060002001600090559055866001016000878152602001908152602001600020600090556001945050505050610d83565b6000915050610d83565b600061319783836130ad565b6131cd57508154600181810184556000848152602080822090930184905584548482528286019093526040902091909155610d83565b506000610d83565b60008281526001840160205260408120548061323a575050604080518082018252838152602080820184815286546001818101895560008981528481209551600290930290950191825591519082015586548684528188019092529290912055611278565b8285600001600183038154811061324d57fe5b9060005260206000209060020201600101819055506000915050611278565b6001600160e01b031980821614156132cb576040805162461bcd60e51b815260206004820152601c60248201527f4552433136353a20696e76616c696420696e7465726661636520696400000000604482015290519081900360640190fd5b6001600160e01b0319166000908152603360205260409020805460ff19166001179055565b6132fa8383613351565b6133076000848484612f45565b610be45760405162461bcd60e51b81526004018080602001828103825260328152602001806137226032913960400191505060405180910390fd5b6060611efd848460008561347f565b6001600160a01b0382166133ac576040805162461bcd60e51b815260206004820181905260248201527f4552433732313a206d696e7420746f20746865207a65726f2061646472657373604482015290519081900360640190fd5b6133b581611dd7565b15613407576040805162461bcd60e51b815260206004820152601c60248201527f4552433732313a20746f6b656e20616c7265616479206d696e74656400000000604482015290519081900360640190fd5b61341360008383612939565b6001600160a01b03821660009081526097602052604090206134359082612994565b50613442609882846129a0565b5060405181906001600160a01b038416906000907fddf252ad1be2c89b69c2b068fc378daa952ba7f163c4a11628f55a4df523b3ef908290a45050565b6060824710156134c05760405162461bcd60e51b815260040180806020018281038252602681526020018061379e6026913960400191505060405180910390fd5b6134c985612b5f565b61351a576040805162461bcd60e51b815260206004820152601d60248201527f416464726573733a2063616c6c20746f206e6f6e2d636f6e7472616374000000604482015290519081900360640190fd5b60006060866001600160a01b031685876040518082805190602001908083835b602083106135595780518252601f19909201916020918201910161353a565b6001836020036101000a03801982511681845116808217855250505050505090500191505060006040518083038185875af1925050503d80600081146135bb576040519150601f19603f3d011682016040523d82523d6000602084013e6135c0565b606091505b50915091506135d08282866135db565b979650505050505050565b606083156135ea575081611278565b8251156135fa5782518084602001fd5b60405162461bcd60e51b8152602060048201818152845160248401528451859391928392604401919085019080838360008315612af5578181015183820152602001612add565b828054600181600116156101000203166002900490600052602060002090601f016020900481019282601f1061368257805160ff19168380011785556136af565b828001600101855582156136af579182015b828111156136af578251825591602001919060010190613694565b506136bb9291506136bf565b5090565b5b808211156136bb57600081556001016136c056fe456e756d657261626c655365743a20696e646578206f7574206f6620626f756e64734552433732315061757361626c653a20746f6b656e207472616e73666572207768696c65207061757365644552433732313a207472616e7366657220746f206e6f6e20455243373231526563656976657220696d706c656d656e7465724f776e61626c653a206e6577206f776e657220697320746865207a65726f20616464726573734552433732313a207472616e7366657220746f20746865207a65726f2061646472657373416464726573733a20696e73756666696369656e742062616c616e636520666f722063616c6c4552433732313a206f70657261746f7220717565727920666f72206e6f6e6578697374656e7420746f6b656e4552433732313a20617070726f76652063616c6c6572206973206e6f74206f776e6572206e6f7220617070726f76656420666f7220616c6c4552433732313a2062616c616e636520717565727920666f7220746865207a65726f20616464726573734552433732313a206f776e657220717565727920666f72206e6f6e6578697374656e7420746f6b656e496e697469616c697a61626c653a20636f6e747261637420697320616c726561647920696e697469616c697a6564456e756d657261626c654d61703a20696e646578206f7574206f6620626f756e64734552433732313a20617070726f76656420717565727920666f72206e6f6e6578697374656e7420746f6b656e4552433732314d657461646174613a2055524920736574206f66206e6f6e6578697374656e7420746f6b656e4f776e61626c653a2063616c6c6572206973206e6f7420746865206f776e65724552433732313a207472616e73666572206f6620746f6b656e2074686174206973206e6f74206f776e4552433732314d657461646174613a2055524920717565727920666f72206e6f6e6578697374656e7420746f6b656e4552433732313a20617070726f76616c20746f2063757272656e74206f776e65725a657230205265676973747261723a20436f6e74726f6c6c657220697320616c72656164792061646465644552433732313a207472616e736665722063616c6c6572206973206e6f74206f776e6572206e6f7220617070726f7665645a657230205265676973747261723a20436f6e74726f6c6c657220646f6573206e6f74206578697374a2646970667358221220f8447281cf1a0c0d68c60e586223ec2987744bdf4c16a404ef2f739d5630f78164736f6c63430007030033",
  "linkReferences": {},
  "deployedLinkReferences": {}
}